{
  "contractName": "DocumentSharing",
  "abi": [
    {
      "inputs": [
        {
          "internalType": "string",
          "name": "",
          "type": "string"
        },
        {
          "internalType": "address",
          "name": "",
          "type": "address"
        }
      ],
      "name": "Accessible",
      "outputs": [
        {
          "internalType": "bool",
          "name": "",
          "type": "bool"
        }
      ],
      "stateMutability": "view",
      "type": "function",
      "constant": true
    },
    {
      "inputs": [
        {
          "internalType": "address",
          "name": "",
          "type": "address"
        },
        {
          "internalType": "uint256",
          "name": "",
          "type": "uint256"
        }
      ],
      "name": "Ownership",
      "outputs": [
        {
          "internalType": "string",
          "name": "",
          "type": "string"
        }
      ],
      "stateMutability": "view",
      "type": "function",
      "constant": true
    },
    {
      "inputs": [
        {
          "internalType": "string",
          "name": "url",
          "type": "string"
        },
        {
          "internalType": "uint256",
          "name": "documentId",
          "type": "uint256"
        }
      ],
      "name": "checkOwnership",
      "outputs": [
        {
          "internalType": "bool",
          "name": "",
          "type": "bool"
        }
      ],
      "stateMutability": "view",
      "type": "function",
      "constant": true
    },
    {
      "inputs": [
        {
          "internalType": "string",
          "name": "url",
          "type": "string"
        }
      ],
      "name": "checkAccess",
      "outputs": [
        {
          "internalType": "bool",
          "name": "",
          "type": "bool"
        }
      ],
      "stateMutability": "view",
      "type": "function",
      "constant": true
    },
    {
      "inputs": [
        {
          "internalType": "address",
          "name": "addy",
          "type": "address"
        },
        {
          "internalType": "string",
          "name": "url",
          "type": "string"
        },
        {
          "internalType": "uint256",
          "name": "documentId",
          "type": "uint256"
        }
      ],
      "name": "addAccess",
      "outputs": [],
      "stateMutability": "nonpayable",
      "type": "function"
    },
    {
      "inputs": [
        {
          "internalType": "address",
          "name": "addy",
          "type": "address"
        },
        {
          "internalType": "string",
          "name": "url",
          "type": "string"
        },
        {
          "internalType": "uint256",
          "name": "documentId",
          "type": "uint256"
        }
      ],
      "name": "removeAccess",
      "outputs": [],
      "stateMutability": "nonpayable",
      "type": "function"
    },
    {
      "inputs": [
        {
          "internalType": "string",
          "name": "url",
          "type": "string"
        },
        {
          "internalType": "uint256",
          "name": "documentId",
          "type": "uint256"
        }
      ],
      "name": "addOwnership",
      "outputs": [],
      "stateMutability": "nonpayable",
      "type": "function"
    },
    {
      "inputs": [
        {
          "internalType": "string",
          "name": "url",
          "type": "string"
        },
        {
          "internalType": "uint256",
          "name": "documentId",
          "type": "uint256"
        }
      ],
      "name": "removeOwnership",
      "outputs": [],
      "stateMutability": "nonpayable",
      "type": "function"
    },
    {
      "inputs": [
        {
          "internalType": "address",
          "name": "addy",
          "type": "address"
        },
        {
          "internalType": "string",
          "name": "url",
          "type": "string"
        },
        {
          "internalType": "uint256",
          "name": "documentId",
          "type": "uint256"
        }
      ],
      "name": "transferOwnership",
      "outputs": [],
      "stateMutability": "nonpayable",
      "type": "function"
    }
  ],
  "bytecode": "0x608060405234801561001057600080fd5b50611199806100206000396000f3fe608060405234801561001057600080fd5b50600436106100935760003560e01c8063b06c971211610066578063b06c97121461011c578063cc0234e714610138578063d6dd41e714610168578063f6cc55f914610198578063fe772ee1146101c857610093565b80632f14d8ef1461009857806368424271146100b45780637c013527146100e4578063953f140314610100575b600080fd5b6100b260048036038101906100ad9190610b11565b6101e4565b005b6100ce60048036038101906100c99190610b80565b610306565b6040516100db9190610bf7565b60405180910390f35b6100fe60048036038101906100f99190610b11565b6103bd565b005b61011a60048036038101906101159190610b80565b6104d7565b005b61013660048036038101906101319190610b80565b6105e0565b005b610152600480360381019061014d9190610c12565b61064c565b60405161015f9190610cd1565b60405180910390f35b610182600480360381019061017d9190610cf3565b6106f9565b60405161018f9190610bf7565b60405180910390f35b6101b260048036038101906101ad9190610d4f565b61073e565b6040516101bf9190610bf7565b60405180910390f35b6101e260048036038101906101dd9190610b11565b6107b0565b005b8181816040516020016101f79190610dd4565b604051602081830303815290604052805190602001206000803373ffffffffffffffffffffffffffffffffffffffff1673ffffffffffffffffffffffffffffffffffffffff168152602001908152602001600020600083815260200190815260200160002060405160200161026c9190610ee3565b604051602081830303815290604052805190602001201461028c57600080fd5b6001808560405161029d9190610dd4565b908152602001604051809103902060008773ffffffffffffffffffffffffffffffffffffffff1673ffffffffffffffffffffffffffffffffffffffff16815260200190815260200160002060006101000a81548160ff0219169083151502179055505050505050565b6000826040516020016103199190610dd4565b604051602081830303815290604052805190602001206000803373ffffffffffffffffffffffffffffffffffffffff1673ffffffffffffffffffffffffffffffffffffffff168152602001908152602001600020600084815260200190815260200160002060405160200161038e9190610ee3565b60405160208183030381529060405280519060200120036103b257600190506103b7565b600090505b92915050565b8181816040516020016103d09190610dd4565b604051602081830303815290604052805190602001206000803373ffffffffffffffffffffffffffffffffffffffff1673ffffffffffffffffffffffffffffffffffffffff16815260200190815260200160002060008381526020019081526020016000206040516020016104459190610ee3565b604051602081830303815290604052805190602001201461046557600080fd5b6001846040516104759190610dd4565b908152602001604051809103902060008673ffffffffffffffffffffffffffffffffffffffff1673ffffffffffffffffffffffffffffffffffffffff16815260200190815260200160002060006101000a81549060ff02191690555050505050565b8181816040516020016104ea9190610dd4565b604051602081830303815290604052805190602001206000803373ffffffffffffffffffffffffffffffffffffffff1673ffffffffffffffffffffffffffffffffffffffff168152602001908152602001600020600083815260200190815260200160002060405160200161055f9190610ee3565b604051602081830303815290604052805190602001201461057f57600080fd5b6000803373ffffffffffffffffffffffffffffffffffffffff1673ffffffffffffffffffffffffffffffffffffffff168152602001908152602001600020600084815260200190815260200160002060006105da91906108c6565b50505050565b816000803373ffffffffffffffffffffffffffffffffffffffff1673ffffffffffffffffffffffffffffffffffffffff1681526020019081526020016000206000838152602001908152602001600020908161063c9190611091565b506106483383836101e4565b5050565b600060205281600052604060002060205280600052604060002060009150915050805461067890610e1a565b80601f01602080910402602001604051908101604052809291908181526020018280546106a490610e1a565b80156106f15780601f106106c6576101008083540402835291602001916106f1565b820191906000526020600020905b8154815290600101906020018083116106d457829003601f168201915b505050505081565b6001828051602081018201805184825260208301602085012081835280955050505050506020528060005260406000206000915091509054906101000a900460ff1681565b60006001826040516107509190610dd4565b908152602001604051809103902060003373ffffffffffffffffffffffffffffffffffffffff1673ffffffffffffffffffffffffffffffffffffffff16815260200190815260200160002060009054906101000a900460ff169050919050565b8181816040516020016107c39190610dd4565b604051602081830303815290604052805190602001206000803373ffffffffffffffffffffffffffffffffffffffff1673ffffffffffffffffffffffffffffffffffffffff16815260200190815260200160002060008381526020019081526020016000206040516020016108389190610ee3565b604051602081830303815290604052805190602001201461085857600080fd5b61086284846104d7565b836000808773ffffffffffffffffffffffffffffffffffffffff1673ffffffffffffffffffffffffffffffffffffffff168152602001908152602001600020600085815260200190815260200160002090816108be9190611091565b505050505050565b5080546108d290610e1a565b6000825580601f106108e45750610903565b601f0160209004906000526020600020908101906109029190610906565b5b50565b5b8082111561091f576000816000905550600101610907565b5090565b6000604051905090565b600080fd5b600080fd5b600073ffffffffffffffffffffffffffffffffffffffff82169050919050565b600061096282610937565b9050919050565b61097281610957565b811461097d57600080fd5b50565b60008135905061098f81610969565b92915050565b600080fd5b600080fd5b6000601f19601f8301169050919050565b7f4e487b7100000000000000000000000000000000000000000000000000000000600052604160045260246000fd5b6109e88261099f565b810181811067ffffffffffffffff82111715610a0757610a066109b0565b5b80604052505050565b6000610a1a610923565b9050610a2682826109df565b919050565b600067ffffffffffffffff821115610a4657610a456109b0565b5b610a4f8261099f565b9050602081019050919050565b82818337600083830152505050565b6000610a7e610a7984610a2b565b610a10565b905082815260208101848484011115610a9a57610a9961099a565b5b610aa5848285610a5c565b509392505050565b600082601f830112610ac257610ac1610995565b5b8135610ad2848260208601610a6b565b91505092915050565b6000819050919050565b610aee81610adb565b8114610af957600080fd5b50565b600081359050610b0b81610ae5565b92915050565b600080600060608486031215610b2a57610b2961092d565b5b6000610b3886828701610980565b935050602084013567ffffffffffffffff811115610b5957610b58610932565b5b610b6586828701610aad565b9250506040610b7686828701610afc565b9150509250925092565b60008060408385031215610b9757610b9661092d565b5b600083013567ffffffffffffffff811115610bb557610bb4610932565b5b610bc185828601610aad565b9250506020610bd285828601610afc565b9150509250929050565b60008115159050919050565b610bf181610bdc565b82525050565b6000602082019050610c0c6000830184610be8565b92915050565b60008060408385031215610c2957610c2861092d565b5b6000610c3785828601610980565b9250506020610c4885828601610afc565b9150509250929050565b600081519050919050565b600082825260208201905092915050565b60005b83811015610c8c578082015181840152602081019050610c71565b60008484015250505050565b6000610ca382610c52565b610cad8185610c5d565b9350610cbd818560208601610c6e565b610cc68161099f565b840191505092915050565b60006020820190508181036000830152610ceb8184610c98565b905092915050565b60008060408385031215610d0a57610d0961092d565b5b600083013567ffffffffffffffff811115610d2857610d27610932565b5b610d3485828601610aad565b9250506020610d4585828601610980565b9150509250929050565b600060208284031215610d6557610d6461092d565b5b600082013567ffffffffffffffff811115610d8357610d82610932565b5b610d8f84828501610aad565b91505092915050565b600081905092915050565b6000610dae82610c52565b610db88185610d98565b9350610dc8818560208601610c6e565b80840191505092915050565b6000610de08284610da3565b915081905092915050565b7f4e487b7100000000000000000000000000000000000000000000000000000000600052602260045260246000fd5b60006002820490506001821680610e3257607f821691505b602082108103610e4557610e44610deb565b5b50919050565b60008190508160005260206000209050919050565b60008154610e6d81610e1a565b610e778186610d98565b94506001821660008114610e925760018114610ea757610eda565b60ff1983168652811515820286019350610eda565b610eb085610e4b565b60005b83811015610ed257815481890152600182019150602081019050610eb3565b838801955050505b50505092915050565b6000610eef8284610e60565b915081905092915050565b60006020601f8301049050919050565b600082821b905092915050565b600060088302610f477fffffffffffffffffffffffffffffffffffffffffffffffffffffffffffffffff82610f0a565b610f518683610f0a565b95508019841693508086168417925050509392505050565b6000819050919050565b6000610f8e610f89610f8484610adb565b610f69565b610adb565b9050919050565b6000819050919050565b610fa883610f73565b610fbc610fb482610f95565b848454610f17565b825550505050565b600090565b610fd1610fc4565b610fdc818484610f9f565b505050565b5b8181101561100057610ff5600082610fc9565b600181019050610fe2565b5050565b601f8211156110455761101681610e4b565b61101f84610efa565b8101602085101561102e578190505b61104261103a85610efa565b830182610fe1565b50505b505050565b600082821c905092915050565b60006110686000198460080261104a565b1980831691505092915050565b60006110818383611057565b9150826002028217905092915050565b61109a82610c52565b67ffffffffffffffff8111156110b3576110b26109b0565b5b6110bd8254610e1a565b6110c8828285611004565b600060209050601f8311600181146110fb57600084156110e9578287015190505b6110f38582611075565b86555061115b565b601f19841661110986610e4b565b60005b828110156111315784890151825560018201915060208501945060208101905061110c565b8683101561114e578489015161114a601f891682611057565b8355505b6001600288020188555050505b50505050505056fea2646970667358221220d7a02090868bdc1394c00ab9413a797f32c0e65aa9c284c2f087ef2ae4d3ed2264736f6c63430008110033",
  "immutableReferences": {},
  "source": "// SPDX-License-Identifier: UNLICENSED\n\npragma solidity ^0.8.17;\n\ncontract DocumentSharing {\n    mapping(address => mapping(uint256 => string)) public Ownership;\n    mapping(string => mapping(address => bool)) public Accessible;\n\n    modifier owner(string memory url, uint256 documentId) {\n        require(\n            keccak256(abi.encodePacked(Ownership[msg.sender][documentId])) ==\n                keccak256(abi.encodePacked(url))\n        );\n\n        _;\n    }\n\n    modifier accesser(string memory url) {\n        require(Accessible[url][msg.sender]);\n        _;\n    }\n\n    function checkOwnership(string memory url, uint256 documentId)\n        public\n        view\n        returns (bool)\n    {\n        if (\n            keccak256(abi.encodePacked(Ownership[msg.sender][documentId])) ==\n            keccak256(abi.encodePacked(url))\n        ) {\n            return true;\n        } else {\n            return false;\n        }\n    }\n\n    function checkAccess(string memory url) public view returns (bool) {\n        return Accessible[url][msg.sender];\n    }\n\n    function addAccess(\n        address addy,\n        string memory url,\n        uint256 documentId\n    ) public owner(url, documentId) {\n        Accessible[url][addy] = true;\n    }\n\n    function removeAccess(\n        address addy,\n        string memory url,\n        uint256 documentId\n    ) external owner(url, documentId) {\n        delete Accessible[url][addy];\n    }\n\n    function addOwnership(string memory url, uint256 documentId) external {\n        Ownership[msg.sender][documentId] = url;\n        addAccess(msg.sender, url, documentId);\n    }\n\n    function removeOwnership(string memory url, uint256 documentId)\n        public\n        owner(url, documentId)\n    {\n        delete Ownership[msg.sender][documentId];\n    }\n\n    function transferOwnership(\n        address addy,\n        string memory url,\n        uint256 documentId\n    ) external owner(url, documentId) {\n        removeOwnership(url, documentId);\n        Ownership[addy][documentId] = url;\n    }\n}",
  "sourcePath": "/Users/arshkochhar/Desktop/Github/DocQshare_Contract/contracts/DocumentSharing.sol",
  "compiler": {
    "name": "solc",
    "version": "0.8.17+commit.8df45f5f.Emscripten.clang"
  },
  "schemaVersion": "3.4.11",
  "updatedAt": "2023-03-13T18:18:04.540Z",
  "networkType": "ethereum",
  "devdoc": {
    "kind": "dev",
    "methods": {},
    "version": 1
  },
  "userdoc": {
    "kind": "user",
    "methods": {},
    "version": 1
  }
}